:100000000C94B5000C94D2000C94D2000C94D20045
:100010000C94D2000C94D2000C94D2000C94AB112E
:100020000C94DE110C94CC100C9478110C941211D9
:100030000C9445110C9499100C94D2000C94D2009D
:100040000C9440100C94D2000C94E3180C94D20041
:100050000C949B180C9488080C94D2000C94D20039
:100060000C94D2000C94D200636F756E743A202504
:10007000640D0A00496E697469616C697A6174691A
:100080006F6E20436F6D706C6574650D0A004D6F67
:1000900076696E67204C656674200D0A004D6F7698
:1000A000696E67207269676874200D0A004D6F766B
:1000B000696E67205374726169676874200D0A0065
:1000C0004D6964646C652053656E736F7220566170
:1000D0006C75653A2025640D0A00526967687420C2
:1000E00053656E736F722056616C75653A20256496
:1000F0000D0A004C6566742053656E736F7220564E
:10010000616C75653A2025640D0A00526967687450
:100110002053656E736F722056616C75653A2025A9
:10012000640D0A004C6566742053656E736F72200F
:1001300056616C75653A2025640D0A003031323302
:1001400034353637383941424344454600000001D2
:100150000008004000000100040000010008002029
:100160000040008000000100040011241FBECFEFFA
:10017000D4E0DEBFCDBF11E0A0E0B1E0EEE3F7E3F5
:1001800002C005900D92A630B107D9F712E0A6E0A3
:10019000B1E001C01D92A23CB107E1F70E945B03F0
:1001A0000C949E1B0C940000CF93DF93CDB7DEB769
:1001B000AAE2B0E0EAE2F0E0808180648C93AAE2F7
:1001C000B0E0EAE2F0E0808180688C93AAE2B0E0DF
:1001D000EAE2F0E0808180628C93AAE2B0E0EAE299
:1001E000F0E0808180618C93AAE2B0E0EAE2F0E086
:1001F000808184608C93AAE2B0E0EAE2F0E0808142
:1002000088608C93A7E2B0E0E7E2F0E080818F7D28
:100210008C93A7E2B0E0E7E2F0E080818F7E8C93E0
:10022000A7E2B0E0E7E2F0E08081877F8C93A4E270
:10023000B0E0E4E2F0E080818F7E8C93E5E2F0E0D4
:100240008081E5E2F0E080E08083E8E2F0E0808118
:10025000E8E2F0E080E08083EBE2F0E08081EBE236
:10026000F0E080E08083ABE2B0E0EBE2F0E08081A0
:1002700080648C93ABE2B0E0EBE2F0E080818068D8
:100280008C93DF91CF910895CF93DF93CDB7DEB7F5
:10029000ABE2B0E0EBE2F0E080818F7E8C93DF9107
:1002A000CF910895CF93DF93CDB7DEB7ABE2B0E047
:1002B000EBE2F0E0808180618C93DF91CF91089533
:1002C000CF93DF93CDB7DEB722970FB6F894DEBF9A
:1002D0000FBECDBF9A838983ABE2B0E0EBE2F0E0E2
:1002E000808184608C9389819A810E947802ABE23C
:1002F000B0E0EBE2F0E080818B7F8C9322960FB62A
:10030000F894DEBF0FBECDBFDF91CF910895CF939C
:10031000DF93CDB7DEB722970FB6F894DEBF0FBEDE
:10032000CDBF9A838983ABE2B0E0EBE2F0E080815D
:1003300088608C9389819A810E947802ABE2B0E058
:10034000EBE2F0E08081877F8C9322960FB6F894E1
:10035000DEBF0FBECDBFDF91CF910895CF93DF9366
:10036000CDB7DEB78CE690E00E94D50264E381E071
:100370000E94F5126FEF80E00E94F512DF91CF919D
:100380000895CF93DF93CDB7DEB782E790E00E9468
:10039000D5026FEF81E00E94F51264E380E00E94D5
:1003A000F512DF91CF910895CF93DF93CDB7DEB7EC
:1003B00083E790E00E94D5026FEF81E00E94F51282
:1003C0006FEF80E00E94F512DF91CF910895CF93F7
:1003D000DF93CDB7DEB786E790E00E94D50280E0DC
:1003E00090E00E94600180E090E00E948701DF9130
:1003F000CF910895CF93DF93CDB7DEB788E690E035
:100400000E94D50284E390E00E94600184E390E0C2
:100410000E948701DF91CF910895CF93DF93CDB7ED
:10042000DEB724970FB6F894DEBF0FBECDBF698349
:100430007A838B839C830BC089819A81AB81BC8139
:100440000197A109B10989839A83AB83BC83898110
:100450009A81AB81BC810097A105B10569F724960B
:100460000FB6F894DEBF0FBECDBFDF91CF910895D8
:10047000CF93DF93CDB7DEB70E94580785E00E9487
:100480009A0781E00E94B807DF91CF910895CF933A
:10049000DF93CDB7DEB70E94FC1660E076E980E01E
:1004A00090E00E9453178CEC97E10E949D08DF9129
:1004B000CF910895CF93DF93CDB7DEB724970FB6D2
:1004C000F894DEBF0FBECDBF9A8389837C836B8394
:1004D0008B810E946B08882F90E09A8389832496F1
:1004E0000FB6F894DEBF0FBECDBFDF91CF91089558
:1004F000CF93DF93CDB7DEB724970FB6F894DEBF66
:100500000FBECDBF9C838B8316C01A820CC019828C
:1005100004C0000089818F5F898389818630C8F398
:100520008A818F5F8A838A818A3588F38B819C8157
:1005300001979C838B838B819C81009731F7249654
:100540000FB6F894DEBF0FBECDBFDF91CF910895F7
:10055000CF93DF93CDB7DEB722970FB6F894DEBF07
:100560000FBECDBF89830CC00E94440188EC90E08F
:100570000E9478020E94520188EC90E00E9478026A
:100580001A828981181614F481E08A838981815046
:1005900089838A81882341F722960FB6F894DEBFBB
:1005A0000FBECDBFDF91CF910895CF93DF93CDB72D
:1005B000DEB723970FB6F894DEBF0FBECDBF898399
:1005C0008981282F30E03B832A838A819B8182376F
:1005D000910559F12A813B812337310564F48A81E1
:1005E0009B818836910509F44FC02A813B812C36C6
:1005F000310561F057C08A819B818337910529F1CC
:100600002A813B812637310581F14CC0ABE2B0E055
:10061000EBE2F0E080818F7B8C93ABE2B0E0EBE229
:10062000F0E0808180688C933DC0ABE2B0E0EBE20B
:10063000F0E0808180648C93ABE2B0E0EBE2F0E02C
:1006400090818FE789238C932DC0ABE2B0E0EBE281
:10065000F0E080818F7B8C93ABE2B0E0EBE2F0E0E6
:1006600090818FE789238C931DC0ABE2B0E0EBE271
:10067000F0E0808180648C93ABE2B0E0EBE2F0E0EC
:10068000808180688C930EC0ABE2B0E0EBE2F0E0DA
:10069000808180648C93ABE2B0E0EBE2F0E080819B
:1006A00080688C9323960FB6F894DEBF0FBECDBF43
:1006B000DF91CF910895CF93DF93CDB7DEB70E943E
:1006C000D4000E9447020E94750C0E9411120E94E1
:1006D000380284E790E09F938F9381E08F930E948C
:1006E0004D0B0F900F900F900E9444010E94260521
:1006F000809100019091010128E630E09F938F9353
:100700003F932F9381E08F930E944D0B0F900F909A
:100710000F900F900F908091040190910501019628
:1007200090930501809304010E949703E1CFCF933A
:10073000DF93CDB7DEB7809106019091070123EFDB
:1007400030E09F938F933F932F9381E08F930E948C
:100750004D0B0F900F900F900F900F9085E00E941F
:100760006B08882F90E09093070180930601809199
:100770000801909109012AED30E09F938F933F93F8
:100780002F9381E08F930E944D0B0F900F900F904D
:100790000F900F9084E00E946B08882F90E0909358
:1007A00009018093080180910A0190910B0120ECCE
:1007B00030E09F938F933F932F9381E08F930E941C
:1007C0004D0B0F900F900F900F900F9083E00E94B1
:1007D0006B08882F90E090930B0180930A01209181
:1007E0000A0130910B018091100190911101281B99
:1007F000390B80910C0190910D01281739070CF0ED
:1008000058C020910E0130910F0180910A01909102
:100810000B01281B390B80910C0190910D0182175F
:1008200093070CF046C020910A0130910B01809192
:1008300006019091070128173907DCF520910A017C
:1008400030910B0180910801909109012817390717
:1008500084F5209108013091090180910A0190915D
:100860000B01281B390B80910C0190910D0182170F
:100870009307FCF4209106013091070180910A0151
:1008800090910B01281B390B80910C0190910D0167
:100890008217930774F48DEA90E09F938F9381E021
:1008A0008F930E944D0B0F900F900F900E94D401D8
:1008B00056C0209106013091070180910A01909164
:1008C0000B01281739078CF02091060130910701A0
:1008D00080910A0190910B01281B390B80910C012A
:1008E00090910D012817390774F48DE990E09F93DA
:1008F0008F9381E08F930E944D0B0F900F900F907C
:100900000E94AE012CC02091080130910901809114
:100910000A0190910B01281739078CF020910801EA
:100920003091090180910A0190910B01281B390B2C
:1009300080910C0190910D012817390774F48EE80D
:1009400090E09F938F9381E08F930E944D0B0F90C7
:100950000F900F900E94C10102C00E94FA01DF9126
:10096000CF910895CF93DF93CDB7DEB78091060185
:100970009091070124E231E09F938F933F932F934F
:1009800081E08F930E944D0B0F900F900F900F906E
:100990000F9085E00E946B08882F90E090930701EC
:1009A0008093060180910801909109012BE031E0CC
:1009B0009F938F933F932F9381E08F930E944D0BD2
:1009C0000F900F900F900F900F9084E00E946B0893
:1009D000882F90E0909309018093080120910601EF
:1009E00030910701809108019091090182179307C6
:1009F000A4F42091060130910701809108019091A3
:100A00000901281B390B80910C0190910D0182176F
:100A100093071CF40E94AE0116C02091080130918A
:100A200009018091060190910701821793074CF408
:100A300080910C0190910D0199231CF40E94C10139
:100A400002C00E94D401DF91CF910895CF93DF932C
:100A5000CDB7DEB781E090E090938B0280938A025D
:100A60001092B3011092B2011FC08091B201909117
:100A7000B301880F991FFC01EA54FE4F11821082C6
:100A80008091B2019091B301880F991FFC01EA5D3A
:100A9000FD4F118210828091B2019091B3010196B5
:100AA0009093B3018093B2012091B2013091B301D0
:100AB000809102019091030128173907B4F2109236
:100AC0001F0210921E021FC180910001909101012E
:100AD000019690930101809300010E9428070E94D3
:100AE00038070E94480780918A0290918B028130DA
:100AF000910581F48091200290912102909311013F
:100B000080931001809120029091210290930F0117
:100B100080930E011092B5011092B4014BC08091E8
:100B2000B4019091B501880F991FFC01E05EFD4F63
:100B3000208131818091100190911101281739078E
:100B40007CF48091B4019091B501880F991FFC014C
:100B5000E05EFD4F8081918190931101809310019F
:100B60008091B4019091B501880F991FFC01E05E5E
:100B7000FD4F2081318180910E0190910F018217EC
:100B800093077CF48091B4019091B501880F991F6F
:100B9000FC01E05EFD4F8081918190930F01809375
:100BA0000E018091B4019091B50101969093B50129
:100BB0008093B4018091B4019091B5018330910587
:100BC0000CF4ADCF80911E0290911F022091200263
:100BD00030912102880F991FFC01EA54FE4F3183A6
:100BE000208380911E0290911F022091200230915B
:100BF0002102880F991FFC01EA5DFD4F318320839C
:100C000010921B0210921A0269C080911A029091F0
:100C10001B02880F991FFC01E05EFD4F208131818E
:100C200080911E0290911F02880F991FFC01EA54C7
:100C3000FE4F8081918128173907BCF440911E0234
:100C400050911F0280911A0290911B02880F991FE8
:100C5000FC01E05EFD4F20813181CA01880F991FA0
:100C6000FC01EA54FE4F3183208380911A02909157
:100C70001B02880F991FFC01E05EFD4F208131812E
:100C800080911E0290911F02880F991FFC01EA5467
:100C9000FE4F8081918182179307BCF440911E0220
:100CA00050911F0280911A0290911B02880F991F88
:100CB000FC01E05EFD4F20813181CA01880F991F40
:100CC000FC01EA54FE4F3183208380911A029091F7
:100CD0001B02019690931B0280931A0280911A02C4
:100CE00090911B02833091050CF48FCF10928B02F0
:100CF00010928A0280911E0290911F020196909399
:100D00001F0280931E0220911E0230911F028091CB
:100D1000020190910301281739070CF4D5CE0E94E7
:100D20009406DF91CF910895CF93DF93CDB7DEB7CF
:100D300024970FB6F894DEBF0FBECDBF1A8219827A
:100D40002BC089819A81880F991FFC01EA54FE4FBC
:100D5000208131818091120190911301820F931FA4
:100D6000909313018093120189819A81880F991FB2
:100D7000FC01EA5DFD4F2081318180911401909149
:100D80001501820F931F909315018093140189819F
:100D90009A8101969A8389832091020130910301FF
:100DA00089819A818217930764F280911201909150
:100DB00013012091020130910301B9010E944E1BE1
:100DC000CB019093130180931201809114019091B3
:100DD00015012091020130910301B9010E944E1BBF
:100DE000CB0190931501809314012091140130914F
:100DF00015018091120190911301A901481B590B13
:100E0000CA019C838B838B819C81992334F44B8111
:100E10005C814F5F5F4F5C834B838B819C81959599
:100E2000879590930D0180930C0180910C01909116
:100E30000D01992324F410920D0110920C012496B7
:100E40000FB6F894DEBF0FBECDBFDF91CF910895EE
:100E5000CF93DF93CDB7DEB785E00E946B08882F74
:100E600090E09093210280932002DF91CF9108952A
:100E7000CF93DF93CDB7DEB784E00E946B08882F55
:100E800090E09093230280932202DF91CF91089506
:100E9000CF93DF93CDB7DEB783E00E946B08882F36
:100EA00090E09093250280932402DF91CF910895E2
:100EB000CF93DF93CDB7DEB7AAE7B0E0EAE7F0E083
:100EC000808180688C93AAE7B0E0EAE7F0E0808157
:100ED0008F7D8C9386E00E949A0781E00E94B8077C
:100EE000ACE7B0E0ECE7F0E080818F7D8C93AAE77F
:100EF000B0E0EAE7F0E0808188608C9310928C0289
:100F00007894DF91CF910895CF93DF93CDB7DEB77B
:100F1000AAE7B0E0EAE7F0E08081877F8C93AAE758
:100F2000B0E0EAE7F0E090818FE789238C93DF91CE
:100F3000CF910895CF93DF93CDB7DEB721970FB64A
:100F4000F894DEBF0FBECDBF8983AAE7B0E0EAE721
:100F5000F0E08081982F987F8981892B8C9321964E
:100F60000FB6F894DEBF0FBECDBFDF91CF910895CD
:100F7000CF93DF93CDB7DEB721970FB6F894DEBFDE
:100F80000FBECDBF8983ACE7B0E0ECE7F0E0808135
:100F9000982F8FE3292F28238981882F90E0002420
:100FA000969587950794969587950794982F802D09
:100FB000822B8C9321960FB6F894DEBF0FBECDBF67
:100FC000DF91CF910895CF93DF93CDB7DEB721970F
:100FD0000FB6F894DEBF0FBECDBF8983ACE7B0E09B
:100FE000ECE7F0E08081982F907E89818F71892BCA
:100FF0008C9321960FB6F894DEBF0FBECDBFDF9164
:10100000CF910895CF93DF93CDB7DEB7AAE7B0E0D5
:10101000EAE7F0E0808180618C93AAE7B0E0EAE73C
:10102000F0E0808180648C93DF91CF910895CF931D
:10103000DF93CDB7DEB7EAE7F0E08081882F90E05C
:1010400080749070DF91CF910895CF93DF93CDB7E7
:10105000DEB721970FB6F894DEBF0FBECDBF8983F0
:1010600010928C02ACE7B0E0ECE7F0E08081982FC2
:10107000907E89818F71892B8C93AAE7B0E0EAE793
:10108000F0E0808180618C93AAE7B0E0EAE7F0E0CD
:10109000808180648C93EAE7F0E08081882F90E083
:1010A000807490700097B9F7E8E7F0E08081282F0E
:1010B00030E0E9E7F0E08081882F90E0982F8827E2
:1010C000822B932B21960FB6F894DEBF0FBECDBFB7
:1010D000DF91CF910895CF93DF93CDB7DEB72197FE
:1010E0000FB6F894DEBF0FBECDBF898389810E9401
:1010F00025089695879596958795882F90E0219657
:101100000FB6F894DEBF0FBECDBFDF91CF9108952B
:101110001F920F920FB60F9211248F93CF93DF93EC
:10112000CDB7DEB78FEF80938C02DF91CF918F9197
:101130000F900FBE0F901F901895CF93DF93CDB7F0
:10114000DEB722970FB6F894DEBF0FBECDBF9A83ED
:10115000898389819A819093170180931601229641
:101160000FB6F894DEBF0FBECDBFDF91CF910895CB
:10117000CF93DF93CDB7DEB721970FB6F894DEBFDC
:101180000FBECDBF898389818A3031F4E091160189
:10119000F09117018DE00995E0911601F09117018A
:1011A0008981099521960FB6F894DEBF0FBECDBF99
:1011B000DF91CF910895CF93DF93CDB7DEB722971C
:1011C0000FB6F894DEBF0FBECDBF9A8389838981A5
:1011D0009A81009789F00BC0E981FA812081898189
:1011E0009A8101969A838983822F0E94B808E981A7
:1011F000FA818081882381F722960FB6F894DEBFAA
:101200000FBECDBFDF91CF910895CF93DF93CDB7C0
:10121000DEB72A970FB6F894DEBF0FBECDBF9A8314
:1012200089837C836B835E834D8318861F828981CB
:101230009A81009709F449C02F81388519868B81DE
:101240009C812817390710F481E089878F81988560
:10125000019698878F8381E099858927882391F467
:10126000E981FA8180818A878A85882311F091E05B
:101270009A878A8529813A812F5F3F4F3A83298354
:101280008823D1F618861F8219C0E981FA818081EE
:10129000882361F0E981FA81208189819A81019610
:1012A0009A838983822F0E94B80803C080E20E943B
:1012B000B8088F819885019698878F832F8138850C
:1012C0008D819E812817390700F32A960FB6F8946E
:1012D000DEBF0FBECDBFDF91CF910895CF93DF93D7
:1012E000CDB7DEB726970FB6F894DEBF0FBECDBFE1
:1012F0009D838C838C819D810097B1F003C08E818A
:101300000E94B8088C819D819B838A838C819D81FA
:1013100001969D838C83EA81FB81849189838981F5
:101320008E838E81882359F726960FB6F894DEBFF8
:101330000FBECDBFDF91CF910895CF93DF93CDB78F
:10134000DEB78AE00E94B808DF91CF910895CF936D
:10135000DF93CDB7DEB724970FB6F894DEBF0FBE8C
:10136000CDBF8C838C81882F90E08F709070845CCF
:101370009E4F9B838A83EA81FB8184918983898143
:101380000E94B80824960FB6F894DEBF0FBECDBFFA
:10139000DF91CF910895CF93DF93CDB7DEB721973B
:1013A0000FB6F894DEBF0FBECDBF898389818295C9
:1013B0008F700E94A70989810E94A70921960FB604
:1013C000F894DEBF0FBECDBFDF91CF910895CF93CC
:1013D000DF93CDB7DEB722970FB6F894DEBF0FBE0E
:1013E000CDBF9A83898389819A81892F99270E9409
:1013F000CB0989810E94CB0922960FB6F894DEBFF3
:101400000FBECDBFDF91CF910895CF93DF93CDB7BE
:10141000DEB724970FB6F894DEBF0FBECDBF698349
:101420007A838B839C8389819A81AB81BC81CD0136
:10143000AA27BB270E94E70989819A810E94E709B0
:1014400024960FB6F894DEBF0FBECDBFDF91CF91CB
:101450000895EF92FF920F931F93CF93DF93CDB731
:10146000DEB7E6970FB6F894DEBF0FBECDBF8EA7EE
:101470006FA748AB29ABEAAAFBAA0CAB1DAB88A9A6
:101480008823B1F08AA99BA9ACA9BDA9BB2384F488
:101490008AA99BA9ACA9BDA9B095A0959095819565
:1014A0009F4FAF4FBF4F88879987AA87BB8708C0D8
:1014B0008AA99BA9ACA9BDA988879987AA87BB8758
:1014C00088A98EAB8EA9882311F081E08EAB9EA9EE
:1014D0008FA5891B81508F83CE010E9680969D87A4
:1014E0008C878C859D8501979D878C87EC85FD85F4
:1014F00010828C859D8501979D878C878EA5282FCE
:1015000030E040E050E088859985AA85BB85BC0124
:10151000CD010E94611BDC01CB018F709070845C57
:101520009E4F9E838D83ED81FE8184918C838C817F
:10153000EC85FD8580838EA5282F30E040E050E0CB
:1015400088859985AA85BB85BC01CD010E94611B58
:10155000DA01C90188879987AA87BB8747C0888530
:101560009985AA85BB850097A105B105B1F18C8548
:101570009D8501979D878C878EA5282F30E040E0C0
:1015800050E088859985AA85BB85BC01CD010E9464
:10159000611BDC01CB018F709070845C9E4F9B833C
:1015A0008A83EA81FB81849189838981EC85FD8529
:1015B00080838EA5282F30E040E050E08885998513
:1015C000AA85BB85BC01CD010E94611BDA01C9015E
:1015D00088879987AA87BB8709C08C859D850197D5
:1015E0009D878C87EC85FD8589A980838F818150BB
:1015F0008F838F818F3F09F0B2CF88A9882361F153
:101600008AA99BA9ACA9BDA9BB2354F48C859D854F
:1016100001979D878C87EC85FD858DE280831CC0BA
:101620008AA99BA9ACA9BDA9181619061A061B06FA
:1016300054F48C859D8501979D878C87EC85FD856D
:101640008BE2808309C08C859D8501979D878C875F
:10165000EC85FD8580E280838FA58F830BC0EC85B0
:10166000FD8520818C859D8501969D878C87822FA5
:101670000E94B8088F8181508F838F818F3F79F7C7
:10168000E6960FB6F894DEBF0FBECDBFDF91CF91C7
:101690001F910F91FF90EF900895CF93DF93CDB7F7
:1016A000DEB765970FB6F894DEBF0FBECDBFCE0193
:1016B0004D969F878E870BC08D85882329F480E007
:1016C00090E09D8B8C8BCBC08D850E94B8088A8D55
:1016D000882381F08B8D9C8D9E838D838B8D9C8D3B
:1016E00001969C8F8B8FED81FE8184918C838C8100
:1016F0008B8B09C0EB8DFC8DE081EB8B8B8D9C8DF2
:1017000001969C8F8B8F2B892D878D858532A1F635
:101710008A8D882381F08B8D9C8D9B838A838B8D12
:101720009C8D01969C8F8B8FEA81FB8184918983AC
:1017300089818A8B09C0EB8DFC8DE081EA8B8B8DD2
:101740009C8D01969C8F8B8F3A893D878D85282FA4
:1017500030E0398B288B8889998984369105C9F0C6
:101760002889398928373105E9F0888999898336AC
:10177000910509F00AC02E853F85C90102969F8711
:101780008E87F901808191818D878D850E94B808AF
:101790009ECF8AE090E098878F8380E197E29A87D6
:1017A000898708C080E190E098878F8380E090E18E
:1017B0009A8789872E853F85C90102969F878E87E4
:1017C000F901808191819C878B878D85843629F5ED
:1017D0008B859C859923ACF48B859C859095819510
:1017E0009F4F9C878B878DE20E94B8080AC089852D
:1017F0009A852AE030E0B9010E943A1BCB019A8712
:10180000898789859A858230910538F029853A85BE
:101810008B859C858217930750F38B859C85298542
:101820003A85B9010E943A1BCB010E94A7098B851A
:101830009C8529853A85B9010E943A1B9C878B8734
:1018400089859A852F813885B9010E943A1BCB0181
:101850009A87898789859A850097F9F638CF8C8988
:101860009D8965960FB6F894DEBF0FBECDBFDF91A0
:10187000CF910895CF93DF93CDB7DEB726970FB6FC
:10188000F894DEBF0FBECDBF9C838B838B819C8180
:10189000039625E030E0B9010E943A1BCB01CC0150
:1018A000A0E0B0E0880F991FAA1FBB1F880F991FE7
:1018B000AA1FBB1F9A8389831E821D8206C02D81A9
:1018C0003E812F5F3F4F3E832D8389819A812D81F9
:1018D0003E812817390798F326960FB6F894DEBF95
:1018E0000FBECDBFDF91CF910895CF93DF93CDB7DA
:1018F000DEB721970FB6F894DEBF0FBECDBF1982B9
:1019000006C089810E94D80D89818F5F8983898172
:101910008730B8F30E949A0C0E94B00C0E94C50C4C
:10192000789421960FB6F894DEBF0FBECDBFDF913D
:10193000CF910895CF93DF93CDB7DEB782E00E94B9
:10194000DB0CE6E4F0E01082AEE6B0E0EEE6F0E0BC
:10195000808181608C930E94CF0EDF91CF9108959A
:10196000CF93DF93CDB7DEB783E00E94F90CE4E8B4
:10197000F0E011821082AFE6B0E0EFE6F0E08081A7
:1019800081608C93DF91CF910895CF93DF93CDB792
:10199000DEB784E00E94170DE2EBF0E01082A0E7D2
:1019A000B0E0E0E7F0E0808181608C930E94EF0E70
:1019B000DF91CF910895CF93DF93CDB7DEB7219715
:1019C0000FB6F894DEBF0FBECDBF8983A5E4B0E0AB
:1019D000E5E4F0E08081982F987F8981892B8C93B2
:1019E00021960FB6F894DEBF0FBECDBFDF91CF9129
:1019F0000895CF93DF93CDB7DEB721970FB6F89454
:101A0000DEBF0FBECDBF8983A1E8B0E0E1E8F0E022
:101A10008081982F987F8981892B8C9321960FB68E
:101A2000F894DEBF0FBECDBFDF91CF910895CF9365
:101A3000DF93CDB7DEB721970FB6F894DEBF0FBEA8
:101A4000CDBF8983A1EBB0E0E1EBF0E08081982F7E
:101A5000987F8981892B8C9321960FB6F894DEBFED
:101A60000FBECDBFDF91CF910895CF93DF93CDB758
:101A7000DEB724970FB6F894DEBF0FBECDBFE5E406
:101A8000F0E08081882F90E087709070880F991F18
:101A9000835B9E4F9C838B83EB81FC81859194912A
:101AA0009A838983FC83EB8389819A8124960FB67C
:101AB000F894DEBF0FBECDBFDF91CF910895CF93D5
:101AC000DF93CDB7DEB724970FB6F894DEBF0FBE15
:101AD000CDBFE1E8F0E08081882F90E087709070C2
:101AE000880F991F835B9E4F9C838B83EB81FC81C6
:101AF000859194919A838983FC83EB8389819A8170
:101B000024960FB6F894DEBF0FBECDBFDF91CF9104
:101B10000895CF93DF93CDB7DEB724970FB6F8942F
:101B2000DEBF0FBECDBFE1EBF0E08081882F90E0FB
:101B300087709070880F991F875A9E4F9C838B8364
:101B4000EB81FC81859194919A838983FC83EB835B
:101B500089819A8124960FB6F894DEBF0FBECDBF5F
:101B6000DF91CF910895CF93DF93CDB7DEB7239761
:101B70000FB6F894DEBF0FBECDBF89837B836A8327
:101B80008981873060F48981882F90E0880F991FC0
:101B9000FC01E85EFE4F8A819B81918380832396BE
:101BA0000FB6F894DEBF0FBECDBFDF91CF91089581
:101BB000CF93DF93CDB7DEB721970FB6F894DEBF92
:101BC0000FBECDBF89838981873050F48981882FEA
:101BD00090E0880F991FFC01E85EFE4F1182108291
:101BE00021960FB6F894DEBF0FBECDBFDF91CF9127
:101BF0000895EF92FF920F931F93CF93DF93CDB78A
:101C0000DEB72B970FB6F894DEBF0FBECDBF9B8714
:101C10008A87E6E4F0E08081898710929102109231
:101C2000920210929302109294020E94350D9C0130
:101C300040E050E080E090E4A8E3B0E0BC01CD01DA
:101C40000E94831BDA01C9018D839E83AF83B8870D
:101C50008D819E81AF81B885893B2DE8920726E072
:101C6000A20720E0B20720F58A859B8527E2813113
:101C70009207F0F48A859B85CC01A0E0B0E02D812D
:101C80003E814F815885BC01CD010E941B1BDC01A8
:101C9000CB0128EE33E040E050E0BC01CD010E94D2
:101CA000611BDA01C90189839A83AB83BC833EC07F
:101CB0008A859B857C0100E010E08D819E81AF814B
:101CC000B88528EE33E040E050E0BC01CD010E9431
:101CD000611BDA01C9019C01AD01C801B7010E9475
:101CE0001B1BDC01CB0189839A83AB83BC831EC0A1
:101CF0008091910290919202A0919302B0919402EE
:101D0000A3E5B0E0E3E5F0E08081817F8C93A3E57B
:101D1000B0E0E3E5F0E0808181608C938895A3E5F5
:101D2000B0E0E3E5F0E080818E7F8C9380919102BA
:101D300090919202A0919302B09194022227382FA1
:101D4000492F5A2FE6E4F0E08081882F90E0A0E050
:101D5000B0E079018A01E82AF92A0A2B1B2B898530
:101D6000282F30E040E050E089819A81AB81BC812E
:101D7000820F931FA41FB51FE816F9060A071B0759
:101D800008F4B6CF2B960FB6F894DEBF0FBECDBFCA
:101D9000DF91CF911F910F91FF90EF900895CF9316
:101DA000DF93CDB7DEB710928D0210928E021092A3
:101DB0008F0210929002DF91CF910895CF93DF931D
:101DC000CDB7DEB780918D0290918E02A0918F02E7
:101DD000B0919002BC01CD01DF91CF910895CF93D6
:101DE000DF93CDB7DEB71092950210929602109253
:101DF000970210929802DF91CF910895CF93DF93CD
:101E0000CDB7DEB78091950290919602A09197028E
:101E1000B0919802BC01CD01DF91CF910895CF938D
:101E2000DF93CDB7DEB721970FB6F894DEBF0FBEB4
:101E3000CDBF89838981893079F4A0E8B0E0E0E8FA
:101E4000F0E0808182608C93A0E8B0E0E0E8F0E010
:101E500080818E7F8C9320C089818A3079F4A0E8BC
:101E6000B0E0E0E8F0E0808182608C93A0E8B0E030
:101E7000E0E8F0E0808181608C930EC0A0E8B0E0E3
:101E8000E0E8F0E080818D7F8C93A0E8B0E0E0E8AE
:101E9000F0E0808181608C93E8E8F0E011821082AC
:101EA000EAE8F0E01182108221960FB6F894DEBFC6
:101EB0000FBECDBFDF91CF910895CF93DF93CDB704
:101EC000DEB722970FB6F894DEBF0FBECDBF9A8360
:101ED0008983A0E8B0E0E0E8F0E080818E7F8C9319
:101EE000A0E8B0E0E0E8F0E0808182608C93A1E8B7
:101EF000B0E0E1E8F0E0808188608C93A1E8B0E098
:101F0000E1E8F0E0808180618C93E6E8F0E089818F
:101F10009A8191838083E8E8F0E011821082EAE8F8
:101F2000F0E01182108222960FB6F894DEBF0FBE49
:101F3000CDBFDF91CF910895CF93DF93CDB7DEB7BB
:101F4000A0E8B0E0E0E8F0E080818D7F8C93A0E82D
:101F5000B0E0E0E8F0E080818E7F8C930E94DF0F9C
:101F60000E94F50FDF91CF910895CF93DF93CDB706
:101F7000DEB7A0E8B0E0E0E8F0E0808180688C9314
:101F8000A0E8B0E0E0E8F0E080818F7B8C93DF9107
:101F9000CF910895CF93DF93CDB7DEB7A0E8B0E03F
:101FA000E0E8F0E0808180628C93A0E8B0E0E0E8B7
:101FB000F0E080818F7E8C93DF91CF910895CF9355
:101FC000DF93CDB7DEB7A0E8B0E0E0E8F0E09081C5
:101FD0008FE789238C93A0E8B0E0E0E8F0E080810F
:101FE0008F7B8C93DF91CF910895CF93DF93CDB703
:101FF000DEB7A0E8B0E0E0E8F0E080818F7D8C9370
:10200000A0E8B0E0E0E8F0E080818F7E8C93DF9183
:10201000CF910895CF93DF93CDB7DEB722970FB658
:10202000F894DEBF0FBECDBF9A838983E8E8F0E065
:1020300089819A819183808322960FB6F894DEBFBE
:102040000FBECDBFDF91CF910895CF93DF93CDB772
:10205000DEB722970FB6F894DEBF0FBECDBF9A83CE
:102060008983EAE8F0E089819A81918380832296CE
:102070000FB6F894DEBF0FBECDBFDF91CF910895AC
:102080001F920F920FB60F9211242F933F934F93ED
:102090005F936F937F938F939F93AF93BF93EF93D0
:1020A000FF93CF93DF93CDB7DEB780918D029091F0
:1020B0008E02A0918F02B09190020196A11DB11DD8
:1020C00080938D0290938E02A0938F02B093900222
:1020D0008091910290919202A0919302B09194020A
:1020E0000196A11DB11D8093910290939202A0933D
:1020F0009302B09394028091180190911901009776
:1021000029F0E0911801F09119010995DF91CF9123
:10211000FF91EF91BF91AF919F918F917F916F91BF
:102120005F914F913F912F910F900FBE0F901F9095
:1021300018951F920F920FB60F9211242F933F9371
:102140004F935F936F937F938F939F93AF93BF93BF
:10215000EF93FF93CF93DF93CDB7DEB780911A0152
:1021600090911B01009729F0E0911A01F0911B0159
:102170000995DF91CF91FF91EF91BF91AF919F9121
:102180008F917F916F915F914F913F912F910F9020
:102190000FBE0F901F9018951F920F920FB60F92BF
:1021A00011242F933F934F935F936F937F938F935C
:1021B0009F93AF93BF93EF93FF93CF93DF93CDB7ED
:1021C000DEB78091950290919602A0919702B0910E
:1021D00098020196A11DB11D8093950290939602DD
:1021E000A0939702B09398028091220190912301CD
:1021F000009729F0E0912201F09123010995DF91E8
:10220000CF91FF91EF91BF91AF919F918F917F916E
:102210006F915F914F913F912F910F900FBE0F9053
:102220001F9018951F920F920FB60F9211242F93A3
:102230003F934F935F936F937F938F939F93AF934E
:10224000BF93EF93FF93CF93DF93CDB7DEB780912A
:102250001C0190911D01009729F0E0911C01F09163
:102260001D010995DF91CF91FF91EF91BF91AF9142
:102270009F918F917F916F915F914F913F912F919E
:102280000F900FBE0F901F9018951F920F920FB6D0
:102290000F9211242F933F934F935F936F937F93EC
:1022A0008F939F93AF93BF93EF93FF93CF93DF935E
:1022B000CDB7DEB780911E0190911F01009729F0E4
:1022C000E0911E01F0911F010995DF91CF91FF91DF
:1022D000EF91BF91AF919F918F917F916F915F919E
:1022E0004F913F912F910F900FBE0F901F90189517
:1022F0001F920F920FB60F9211242F933F934F937B
:102300005F936F937F938F939F93AF93BF93EF935D
:10231000FF93CF93DF93CDB7DEB7809120019091EB
:102320002101009729F0E0912001F0912101099508
:10233000DF91CF91FF91EF91BF91AF919F918F91DD
:102340007F916F915F914F913F912F910F900FBEB1
:102350000F901F9018951F920F920FB60F92112495
:102360002F933F934F935F936F937F938F939F939D
:10237000AF93BF93EF93FF93CF93DF93CDB7DEB7C8
:102380008091240190912501009729F0E09124018A
:10239000F09125010995DF91CF91FF91EF91BF91C8
:1023A000AF919F918F917F916F915F914F913F91ED
:1023B0002F910F900FBE0F901F9018951F920F92A4
:1023C0000FB60F9211242F933F934F935F936F9308
:1023D0007F938F939F93AF93BF93EF93FF93CF938D
:1023E000DF93CDB7DEB7809124019091250100974E
:1023F00029F0E0912401F09125010995DF91CF9119
:10240000FF91EF91BF91AF919F918F917F916F91CC
:102410005F914F913F912F910F900FBE0F901F90A2
:102420001895CF93DF93CDB7DEB723970FB6F89407
:10243000DEBF0FBECDBFAFE6B0E0EFE6F0E08081DB
:102440008D7F8C9384E00E94F90C8CEB93E1BC01AE
:1024500082E00E94B30D1B8234C08B81882F90E0F4
:10246000880F991F880F991FFC01E456FD4F82E2E7
:1024700090E0918380838B81882F90E0880F991F53
:10248000880F991FFC01E656FD4F85E080838B8104
:10249000482F50E08B81282F30E081E090E002C08F
:1024A000880F991F2A95E2F7282FCA01880F991FD4
:1024B000880F991FFC01E556FD4F20838B818F5FAC
:1024C0008B838B81843048F21092AB021092AA0267
:1024D0008AED94E09093AD028093AC02E8E8F0E0DE
:1024E0008081882F90E09A838983E9E8F0E08081F9
:1024F000882F90E0982F88279C0189819A81820FEC
:10250000931F9A8389832091AC023091AD02898117
:102510009A81820F931F9A838983E9E8F0E0898189
:102520009A81892F99278083E8E8F0E08981808368
:10253000AFE6B0E0EFE6F0E0808182608C93239616
:102540000FB6F894DEBF0FBECDBFDF91CF910895D7
:10255000CF93DF93CDB7DEB7AFE6B0E0EFE6F0E0C4
:1025600080818D7F8C9382E00E94D80DDF91CF9186
:102570000895CF93DF93CDB7DEB723970FB6F894C6
:10258000DEBF0FBECDBF89836A834B838981882FCD
:1025900090E0880F991F880F991FFC01E656FD4FA8
:1025A0008A8180838981482F50E08B81882F90E039
:1025B0009C012770307081E090E002C0880F991F65
:1025C0002A95E2F7282FCA01880F991F880F991FB3
:1025D000FC01E556FD4F208323960FB6F894DEBF2D
:1025E0000FBECDBFDF91CF910895CF93DF93CDB7CD
:1025F000DEB724970FB6F894DEBF0FBECDBF8B8336
:102600006C838C81282F30E088E690E0AC01249F19
:10261000C001259F900D349F900D11242FEF30E0C5
:10262000B9010E943A1BCB0182969A8389838981E2
:102630009A81BC018B810E94561324960FB6F894A0
:10264000DEBF0FBECDBFDF91CF910895CF93DF9353
:10265000CDB7DEB721970FB6F894DEBF0FBECDBF62
:10266000898389810E949C13AC01CA019C01220FBD
:10267000331FC9019695982F882797958795821BB8
:10268000930B840F951F8E5D914228E630E0B901CF
:102690000E943A1BCB01882F90E021960FB6F89448
:1026A000DEBF0FBECDBFDF91CF910895CF93DF93F3
:1026B000CDB7DEB727970FB6F894DEBF0FBECDBFFC
:1026C00089837B836A838A819B819D838C838C81B0
:1026D0009D818232910520F482E290E09D838C837B
:1026E0008C819D819B838A838A819B819F838E833A
:1026F0008E819F818B38910520F08AE890E09F833E
:102700008E838E819F819B838A838981882F90E02D
:10271000880F991F880F991FFC01E456FD4F8A818D
:102720009B819183808327960FB6F894DEBF0FBEFE
:10273000CDBFDF91CF910895CF93DF93CDB7DEB7B3
:1027400021970FB6F894DEBF0FBECDBF8983898174
:10275000882F90E0880F991F880F991FFC01E4567D
:10276000FD4F8081918121960FB6F894DEBF0FBE98
:10277000CDBFDF91CF910895CF93DF93CDB7DEB773
:1027800024970FB6F894DEBF0FBECDBF809199029B
:10279000843088F580919902882F90E0880F991FE6
:1027A000880F991FFC01E656FD4F8081882F90E02D
:1027B0008096DC0180919902882F90E0880F991F04
:1027C000880F991FFC01E656FD4F8081882F90E00D
:1027D0008096FC018081282F80919902882F90E0BB
:1027E000880F991F880F991FFC01E556FD4F8081C6
:1027F000809582238C93809199028F5F80939902B8
:1028000080919902843009F445C080919902853005
:1028100010F01092990280919902882F90E0880F11
:10282000991F880F991FFC01E656FD4F8081882F64
:1028300090E08096DC0180919902882F90E0880FCB
:10284000991F880F991FFC01E656FD4F8081882F44
:1028500090E08096FC01208180919902882F90E081
:10286000880F991F880F991FFC01E556FD4F808145
:10287000822B8C9380919902882F90E0880F991F6A
:10288000880F991FFC01E456FD4F808191819C8344
:102890008B830CC08091AC029091AD022091AA0272
:1028A0003091AB02821B930B9C838B83E8E8F0E0B2
:1028B0008081882F90E09A838983E9E8F0E0808125
:1028C000882F90E0982F88279C0189819A81820F18
:1028D000931F9A83898329813A818B819C81820FFE
:1028E000931F9A838983E9E8F0E089819A81892F8F
:1028F00099278083E8E8F0E0898180832091AA020B
:102900003091AB028B819C81820F931F9093AB021D
:102910008093AA022091AA023091AB028091AC026E
:102920009091AD022817390720F01092AB02109257
:10293000AA0224960FB6F894DEBF0FBECDBFDF917A
:10294000CF910895CF93DF93CDB7DEB70E94AB143C
:10295000DF91CF910895CF93DF93CDB7DEB70E947B
:102960009C0F1092260110922B01109228011092B8
:10297000270110922D0110922C0180E090E8909395
:102980002A018093290180E090E890932F018093A1
:102990002E0185E796E1BC0182E00E94B30D89EB30
:1029A00096E1BC0183E00E94B30DDF91CF910895C1
:1029B000CF93DF93CDB7DEB7109228011092270195
:1029C00010922D0110922C01A0E8B0E0E0E8F0E0B8
:1029D00090818FE789238C93A0E8B0E0E0E8F0E0F5
:1029E00080818F7B8C93A0E8B0E0E0E8F0E080810C
:1029F0008F7D8C93A0E8B0E0E0E8F0E080818F7EEE
:102A00008C9382E00E94D80D83E00E94D80DDF9164
:102A1000CF910895EF92FF920F931F93CF93DF937F
:102A2000CDB7DEB722970FB6F894DEBF0FBECDBF8D
:102A30009A8389830E945F0D7C0100E010E0898108
:102A40009A819C0140E050E0C801B7010E941B1B25
:102A5000DC01CB019C01AD01220F331F441F551F28
:102A600080E090E4A8E3B0E0BC01CD010E94611BCE
:102A7000DA01C90190932A018093290122960FB6A9
:102A8000F894DEBF0FBECDBFDF91CF911F910F91A4
:102A9000FF90EF900895EF92FF920F931F93CF93C3
:102AA000DF93CDB7DEB722970FB6F894DEBF0FBE27
:102AB000CDBF9A8389830E945F0D7C0100E010E006
:102AC00089819A819C0140E050E0C801B7010E94D1
:102AD0001B1BDC01CB019C01AD01220F331F441FE6
:102AE000551F80E090E4A8E3B0E0BC01CD010E9456
:102AF000611BDA01C90190932F0180932E01229668
:102B00000FB6F894DEBF0FBECDBFDF91CF911F91FE
:102B10000F91FF90EF900895CF93DF93CDB7DEB77D
:102B200022970FB6F894DEBF0FBECDBF9A8389837C
:102B300089819A81009771F080912601816080934C
:102B4000260189819A81880F991F9093280180938B
:102B500027010BC0809126018E7F8093260182E0A1
:102B600090E09093280180932701A0E8B0E0E0E88E
:102B7000F0E090818FE789238C93A0E8B0E0E0E853
:102B8000F0E0808180648C93A8E8B0E0E8E8F0E0B1
:102B9000208131818091290190912A01820F931F18
:102BA00011969C938E93AFE6B0E0EFE6F0E0808163
:102BB00082608C9322960FB6F894DEBF0FBECDBF15
:102BC000DF91CF910895CF93DF93CDB7DEB72297F2
:102BD0000FB6F894DEBF0FBECDBF9A83898389817B
:102BE0009A81009771F080912B01816080932B0175
:102BF00089819A81880F991F90932D0180932C01D0
:102C00000BC080912B018E7F80932B0182E090E09E
:102C100090932D0180932C01A0E8B0E0E0E8F0E073
:102C200080818F7D8C93A0E8B0E0E0E8F0E08081C7
:102C300080618C93AAE8B0E0EAE8F0E0208131817D
:102C400080912E0190912F01820F931F11969C93DA
:102C50008E93AFE6B0E0EFE6F0E0808184608C9385
:102C600022960FB6F894DEBF0FBECDBFDF91CF9195
:102C70000895CF93DF93CDB7DEB7809126018160B1
:102C8000809326011092280110922701DF91CF91A5
:102C90000895CF93DF93CDB7DEB780912B0181608C
:102CA00080932B0110922D0110922C01DF91CF9176
:102CB0000895CF93DF93CDB7DEB780912701909130
:102CC0002801019696958795DF91CF910895CF932E
:102CD000DF93CDB7DEB780912C0190912D01019645
:102CE00096958795DF91CF910895CF93DF93CDB7D8
:102CF000DEB78091270190912801009709F1A8E89B
:102D0000B0E0E8E8F0E020813181809129019091E4
:102D10002A01820F931F11969C938E938091260116
:102D2000882F90E081709070882301F180912701B5
:102D3000909128010197909328018093270116C054
:102D4000A0E8B0E0E0E8F0E090818FE789238C9381
:102D5000A0E8B0E0E0E8F0E080818F7B8C93AFE604
:102D6000B0E0EFE6F0E080818D7F8C93DF91CF9132
:102D70000895CF93DF93CDB7DEB780912C0190916A
:102D80002D01009709F1AAE8B0E0EAE8F0E020811F
:102D9000318180912E0190912F01820F931F119606
:102DA0009C938E9380912B01882F90E0817090707E
:102DB0008823F9F080912C0190912D010197909337
:102DC0002D0180932C0115C0A0E8B0E0E0E8F0E010
:102DD00080818F7D8C93A0E8B0E0E0E8F0E0808116
:102DE0008F7E8C93AFE6B0E0EFE6F0E080818B7FE2
:102DF0008C93DF91CF910895CF93DF93CDB7DEB75A
:102E00000E941D171092B1011092B001E1ECF0E0A8
:102E100088ED808360E875E280E090E00E945317BF
:102E20008FEF8093AE021092B7021092C1021092FF
:102E3000C0027894DF91CF910895CF93DF93CDB7FF
:102E4000DEB780E391E02FEA32E040E450E0BC01DD
:102E5000C9010E94331980E791E028EB32E040E499
:102E600050E0BC01C9010E943319DF91CF91089550
:102E7000CF93DF93CDB7DEB722970FB6F894DEBFBE
:102E80000FBECDBF9A83898389819A819093B101C6
:102E90008093B00122960FB6F894DEBF0FBECDBF6F
:102EA000DF91CF910895EF92FF920F931F93CF93ED
:102EB000DF93CDB7DEB726970FB6F894DEBF0FBE0F
:102EC000CDBF6B837C838D839E838B819C81AD8101
:102ED000BE81880F991FAA1FBB1F880F991FAA1FA9
:102EE000BB1F880F991FAA1FBB1F0F2EF0E0EF2EEC
:102EF000F0E4FF2EF8E30F2FF0E01F2FF02DE80E87
:102F0000F91E0A1F1B1F8B819C81AD81BE81880F1A
:102F1000991FAA1FBB1F880F991FAA1FBB1F880FCD
:102F2000991FAA1FBB1F880F991FAA1FBB1F9C01B7
:102F3000AD01C801B7010E94611BDA01C901019707
:102F40009A838983E4ECF0E089818083E5ECF0E00A
:102F500089819A81892F9927808326960FB6F894C4
:102F6000DEBF0FBECDBFDF91CF911F910F91FF90BC
:102F7000EF900895CF93DF93CDB7DEB78FEA92E05D
:102F8000DF91CF910895CF93DF93CDB7DEB788EB74
:102F900092E0DF91CF910895CF93DF93CDB7DEB765
:102FA00021970FB6F894DEBF0FBECDBF8983809105
:102FB000AE028823E1F3E6ECF0E089818083109291
:102FC000AE0221960FB6F894DEBF0FBECDBFDF91E3
:102FD000CF910895CF93DF93CDB7DEB723970FB688
:102FE000F894DEBF0FBECDBFCE0101960E940F1830
:102FF000882331F08981282F30E03B832A8304C065
:103000008FEF9FEF9B838A838A819B8123960FB6E4
:10301000F894DEBF0FBECDBFDF91CF910895CF935F
:10302000DF93CDB7DEB724970FB6F894DEBF0FBE9F
:10303000CDBF9A8389838091B1029091B2020097AB
:10304000A9F08091B3029091B402009761F08FEAE9
:1030500092E00E946919E981FA8180838FEF90E004
:103060009C838B8305C01C821B8202C01C821B8236
:103070008B819C8124960FB6F894DEBF0FBECDBF26
:10308000DF91CF910895CF93DF93CDB7DEB7109244
:10309000B4021092B302DF91CF910895CF93DF93E2
:1030A000CDB7DEB722970FB6F894DEBF0FBECDBF07
:1030B0008091B3029091B402009729F48FEF90E0D1
:1030C0009A83898302C01A82198289819A81229601
:1030D0000FB6F894DEBF0FBECDBFDF91CF9108953C
:1030E000CF93DF93CDB7DEB721970FB6F894DEBF4D
:1030F0000FBECDBF898388EB92E069810E946D1A73
:10310000882F90E021960FB6F894DEBF0FBECDBF9A
:10311000DF91CF910895CF93DF93CDB7DEB78FEFD7
:103120008093B70288EB92E00E9469190E94CC1745
:10313000DF91CF9108951F920F920FB60F92112435
:103140000F931F932F933F934F935F936F937F93AF
:103150008F939F93AF93BF93EF93FF93CF93DF939F
:10316000CDB7DEB78091B7028823A9F08091BC0269
:103170009091BD02009749F006EC10E088EB92E0D8
:103180000E946919F801808309C01092B7028FEF7D
:103190008093AE0203C08FEF8093AE02DF91CF9198
:1031A000FF91EF91BF91AF919F918F917F916F911F
:1031B0005F914F913F912F911F910F910F900FBEF3
:1031C0000F901F9018951F920F920FB60F92112417
:1031D0002F933F934F935F936F937F938F939F931F
:1031E000AF93BF93EF93FF93CF93DF93CDB7DEB74A
:1031F0002197DEBFCDBFE6ECF0E08081898380912E
:10320000B0019091B101009739F0E091B001F091D7
:10321000B1018981099510C08FEA92E069810E940D
:103220006D1A882349F48091C0029091C1020196E1
:103230009093C1028093C0022196F894DEBFCDBF67
:10324000DF91CF91FF91EF91BF91AF919F918F91BE
:103250007F916F915F914F913F912F910F900FBE92
:103260000F901F901895CF93DF93CDB7DEB72797B8
:103270000FB6F894DEBF0FBECDBF9B838A837D83DC
:103280006C835F834E83EFE5F0E080818983F8945F
:10329000EA81FB818C819D8191838083EA81FB811E
:1032A0008E819F8193838283EA81FB8117821682BC
:1032B000EA81FB8115821482EFE5F0E08981808349
:1032C00027960FB6F894DEBF0FBECDBFDF91CF912A
:1032D0000895CF93DF93CDB7DEB724970FB6F89458
:1032E000DEBF0FBECDBF9C838B831A82EFE5F0E07B
:1032F00080818983F894EB81FC818481958100979A
:10330000D1F1EB81FC8120813181EB81FC818681CF
:103310009781F901E80FF91F80818A83EB81FC8195
:10332000868197810196EB81FC8197838683EB816F
:10333000FC8126813781EB81FC8182819381281772
:10334000390780F0EB81FC8126813781EB81FC819C
:1033500082819381A901481B590BCA01EB81FC8131
:1033600097838683EB81FC81848195810197EB8132
:10337000FC8195838483EFE5F0E0898180838A81F5
:10338000882F90E024960FB6F894DEBF0FBECDBF15
:10339000DF91CF910895CF93DF93CDB7DEB7259717
:1033A0000FB6F894DEBF0FBECDBF9B838A837D83AB
:1033B0006C83EFE5F0E080818983F894EA81FB81FA
:1033C000248135818C819D8182179307B0F5EA8134
:1033D000FB81268137818C819D81820F931FEA8139
:1033E000FB8197838683EA81FB8126813781EA818D
:1033F000FB81828193812817390780F0EA81FB8164
:1034000026813781EA81FB8182819381A901481B52
:10341000590BCA01EA81FB8197838683EA81FB818C
:10342000248135818C819D81A901481B590BCA01DA
:10343000EA81FB819583848304C0EA81FB81158244
:103440001482EFE5F0E08981808325960FB6F89429
:10345000DEBF0FBECDBFDF91CF9108950F931F93B5
:10346000CF93DF93CDB7DEB726970FB6F894DEBFC4
:103470000FBECDBF9C838B837E836D83EFE5F0E031
:1034800080818A83F894EB81FC8100811181EB813A
:10349000FC81268137818D819E81820F931FEB8174
:1034A000FC8122813381B9010E943A1BF801E80FA7
:1034B000F91F80818983EFE5F0E08A81808389812B
:1034C000882F90E026960FB6F894DEBF0FBECDBFD2
:1034D000DF91CF911F910F9108950F931F93CF9379
:1034E000DF93CDB7DEB726970FB6F894DEBF0FBED9
:1034F000CDBF9B838A836C83EFE5F0E08081898375
:10350000F894EA81FB8124813581EA81FB81828103
:1035100093812817390760F5EA81FB8100811181C9
:10352000EA81FB8126813781EA81FB818481958153
:10353000820F931FEA81FB8122813381B9010E94AE
:103540003A1BF801E80FF91F8C818083EA81FB8127
:10355000848195810196EA81FB8195838483EFE5DF
:10356000F0E0898180838FEF90E09E838D8306C099
:10357000EFE5F0E0898180831E821D828D819E812E
:1035800026960FB6F894DEBF0FBECDBFDF91CF9168
:103590001F910F910895CF93DF93CDB7DEB7259795
:1035A0000FB6F894DEBF0FBECDBF9D838C83EFE5D1
:1035B000F0E080818B83F894EC81FD81228133815E
:1035C000EC81FD8184819581A901481B590BCA01B9
:1035D0009A838983EFE5F0E08B81808389819A81EA
:1035E00025960FB6F894DEBF0FBECDBFDF91CF9109
:1035F0000895CF93DF93CDB7DEB723970FB6F89436
:10360000DEBF0FBECDBF9B838A83EFE5F0E08081F4
:103610008983F894EA81FB8115821482EFE5F0E05A
:103620008981808323960FB6F894DEBF0FBECDBF8D
:10363000DF91CF910895629FD001739FF001829F27
:10364000E00DF11D649FE00DF11D929FF00D839F31
:10365000F00D749FF00D659FF00D9927729FB00DCE
:10366000E11DF91F639FB00DE11DF91FBD01CF01E1
:1036700011240895AA1BBB1B51E107C0AA1FBB1F41
:10368000A617B70710F0A61BB70B881F991F5A95EE
:10369000A9F780959095BC01CD01089597FB092E5F
:1036A00007260AD077FD04D0E5DF06D000201AF403
:1036B000709561957F4F0895F6F7909581959F4F8E
:1036C0000895A1E21A2EAA1BBB1BFD010DC0AA1F63
:1036D000BB1FEE1FFF1FA217B307E407F50720F07B
:1036E000A21BB30BE40BF50B661F771F881F991FF6
:1036F0001A9469F760957095809590959B01AC013F
:10370000BD01CF01089597FB092E05260ED057FD68
:1037100004D0D7DF0AD0001C38F45095409530957E
:1037200021953F4F4F4F5F4F0895F6F79095809545
:0E373000709561957F4F8F4F9F4F0895FFCF8B
:06373E0001003200010051
:00000001FF
